S010000050726F6A656374322E737265630B
S11300000C942A000C940D020C943C000C943C00BB
S11300100C943C000C943C000C943C000C943C006C
S11300200C943C000C943C000C943C000C943C005C
S11300300C943C000C943C000C943C000C943C004C
S11300400C943C000C943C000C943C000C943C003C
S11300500C943C0011241FBECFE5D8E0DEBFCDBF19
S113006020E0A0E6B0E001C01D92A736B207E1F798
S11300700E9464020C9464060C940000CF93DF93F6
S113008062E480E00E94DF0462E481E00E94DF0415
S113009062E482E00E94DF0461E480E00E94DF0405
S11300A061E481E00E94DF0461E482E00E94DF04F5
S11300B061E480E00E94DB0462E482E00E94DB04ED
S11300C043E760E070E080EA90E40E949A0261E411
S11300D080E00E94DF0462E482E00E94DF04C0E06A
S11300E0D0E021C081E08093640061E40E94DB04DD
S11300F062E481E00E94DB044DE660E070E08AEF98
S113010093E40E949A0261E481E00E94DF0462E4C5
S113011081E00E94DF044DE660E070E08AEF93E442
S11301200E949A022196C530D105E0F21092640033
S113013061E481E00E94DF0462E481E00E94DF0464
S113014061E482E00E94DB0462E480E00E94DB045C
S113015043E760E070E080EA90E40E949A0261E480
S113016082E00E94DF0462E480E00E94DF04C0E0D9
S1130170D0E021C081E08093640061E40E94DB044C
S113018062E481E00E94DB044DE660E070E08AEF07
S113019093E40E949A0261E481E00E94DF0462E435
S11301A081E00E94DF044DE660E070E08AEF93E4B2
S11301B00E949A022196C530D105E0F210926400A3
S11301C061E481E00E94DF0462E481E00E94DF04D4
S11301D0DF91CF910895CF93DF93809166008130B2
S11301E009F091C061E480E00E94DB0462E482E0F3
S11301F00E94DB0443E760E070E080EA90E40E9440
S11302009A0262E482E00E94DF0461E480E00E94DA
S1130210DF04C0E0D0E021C081E08093640061E4A9
S11302200E94DB0462E481E00E94DB044DE660E0AE
S113023070E08AEF93E40E949A0261E481E00E94F4
S1130240DF0462E481E00E94DF044DE660E070E0D8
S11302508AEF93E40E949A022196C530D105E0F218
S11302601092640061E481E00E94DF0462E481E0B2
S11302700E94DF0461E482E00E94DB0462E480E027
S11302800E94DB0443E760E070E080EA90E40E94AF
S11302909A0261E482E00E94DF0462E480E00E944A
S11302A0DF04C0E0D0E021C081E08093640061E419
S11302B00E94DB0462E481E00E94DB044DE660E01E
S11302C070E08AEF93E40E949A0261E481E00E9464
S11302D0DF0462E481E00E94DF044DE660E070E048
S11302E08AEF93E40E949A022196C530D105E0F288
S11302F01092640062E481E00E94DF0461E481E022
S11303000E94DF044DC080916500813081F08091AE
S11303106400813009F044C00DC061E48C2F0E9458
S1130320DF0462E48C2F0E94DF04219605C0C0E044
S1130330D0E002C0C0E0D0E0C330D10570F3C0E02B
S1130340D0E021C081E08093640061E40E94DB047A
S113035062E481E00E94DB044DE660E070E08AEF35
S113036093E40E949A0261E481E00E94DF0462E463
S113037081E00E94DF044DE660E070E08AEF93E4E0
S11303800E949A022196C530D105E0F210926400D1
S113039061E481E00E94DF0462E481E00E94DF0402
S11303A0109261001092600010926300109262003B
S11303B00E94DD01DF91CF910895C0E0D0E009C033
S11303C061E48C2F0E94D70462E48C2F0E94D7042E
S11303D02196C330D105A0F364E482E00E94D304E3
S11303E08CE40E94690280916200909163000097FE
S11303F079F462E480E00E94DF0462E481E00E9418
S1130400DF0462E482E00E94DF040E943E00EBCF3E
S1130410019749F70E94EB00E6CF1F920F920FB6A7
S11304200F9211242F933F934F935F936F937F9376
S11304308F939F93AF93BF93EF93FF9346E650E060
S113044061E480E00E946B0445E650E061E482E0F0
S11304500E946B048091600090916100892B19F5D2
S11304608091660081111FC08091620090916300A9
S1130470009769F421E030E030936100209360003C
S1130480019690936300809362000E94DD0181E0F5
S113049090E090936100809360001092630010924A
S11304A062000E94DD01FF91EF91BF91AF919F9196
S11304B08F917F916F915F914F913F912F910F9009
S11304C00FBE0F901F9018950E94DD0180E090E010
S11304D008958634C9F018F4813471F008958C3489
S11304E019F08235E1F00895789485B78C7F85BF43
S11304F08BB780648BBF0895789485B7836085BF7C
S11305008BB780648BBF0895789485B7816085BF6D
S113051085B78D7F85BF8BB780648BBF0895789432
S113052085B7826085BF85B78E7F85BF8BB78064B2
S11305308BBF0895CF92DF92EF92FF92CF93DF9318
S113054013BE12BE18BE23B7216023BF4337A9F0E0
S1130550453769F04D3621F060E070E0CB010DC005
S113056020E030E04AE754E40E94FA0406C020E0A8
S113057034E244E759E40E94FA042DEB37E346E8F9
S113058059E30E94FA040E94E3046B017C0183B7DF
S1130590816083BFC0E0D0E007C008B600FEFDCF95
S11305A088B7816088BF2196BE0180E090E00E94F8
S11305B06C059B01AC01C701B6010E943B061816ED
S11305C064F313BEDF91CF91FF90EF90DF90CF9053
S11305D008956234C1F118F4613441F0089563342C
S11305E009F45EC0643409F488C0089541110EC052
S11305F04AB321E030E0B90102C0660F771F8A9543
S1130600E2F7CB01809584238ABB0895413069F4D5
S11306104AB321E030E0B90102C0660F771F8A9522
S1130620E2F7CB01842B8ABB08954AB321E030E082
S1130630B90102C0660F771F8A95E2F7CB01809556
S113064084238ABB089541110EC047B321E030E0F2
S1130650B90102C0660F771F8A95E2F7CB01809536
S1130660842387BB0895413069F447B321E030E027
S1130670B90102C0660F771F8A95E2F7CB01842B7C
S113068087BB089547B321E030E0B90102C0660F8B
S1130690771F8A95E2F7CB018095842387BB089561
S11306A041110EC044B321E030E0B90102C0660F2D
S11306B0771F8A95E2F7CB018095842384BB089544
S11306C0413069F444B321E030E0B90102C0660F5F
S11306D0771F8A95E2F7CB01842B84BB089544B33A
S11306E021E030E0B90102C0660F771F8A95E2F776
S11306F0CB018095842384BB089541110EC041B37E
S113070021E030E0B90102C0660F771F8A95E2F755
S1130710CB018095842381BB0895413069F441B3B2
S113072021E030E0B90102C0660F771F8A95E2F735
S1130730CB01842B81BB089541B321E030E0B901A2
S113074002C0660F771F8A95E2F7CB018095842358
S113075081BB08956234C1F118F4613441F0089505
S1130760633409F45EC0643409F488C00895411107
S11307700EC04BB321E030E0B90102C0660F771F11
S11307808A95E2F7CB01809584238BBB0895413091
S113079069F44BB321E030E0B90102C0660F771F62
S11307A08A95E2F7CB01842B8BBB08954BB321E0F0
S11307B030E0B90102C0660F771F8A95E2F7CB01DA
S11307C0809584238BBB089541110EC048B321E06A
S11307D030E0B90102C0660F771F8A95E2F7CB01BA
S11307E08095842388BB0895413069F448B321E09F
S11307F030E0B90102C0660F771F8A95E2F7CB019A
S1130800842B88BB089548B321E030E0B90102C0CD
S1130810660F771F8A95E2F7CB018095842388BB06
S1130820089541110EC045B321E030E0B90102C082
S1130830660F771F8A95E2F7CB018095842385BBE9
S11308400895413069F445B321E030E0B90102C0B4
S1130850660F771F8A95E2F7CB01842B85BB089539
S113086045B321E030E0B90102C0660F771F8A95D5
S1130870E2F7CB018095842385BB089541110EC016
S113088042B321E030E0B90102C0660F771F8A95B8
S1130890E2F7CB018095842382BB0895413069F44B
S11308A042B321E030E0B90102C0660F771F8A9598
S11308B0E2F7CB01842B82BB089542B321E030E000
S11308C0B90102C0660F771F8A95E2F7CB018095C4
S11308D0842382BB0895623409F118F4613439F039
S11308E00895633491F1643409F446C0089599B3CA
S11308F021E030E0B901082E02C0660F771F0A9488
S1130900E2F7292F30E026233723B90102C0759579
S113091067958A95E2F7FA016083089596B321E01A
S113092030E0B901082E02C0660F771F0A94E2F77F
S1130930292F30E026233723B90102C07595679526
S11309408A95E2F7FA016083089593B321E030E0D9
S1130950B901082E02C0660F771F0A94E2F7292F07
S113096030E026233723B90102C0759567958A952F
S1130970E2F7FA016083089590B321E030E0B90111
S1130980082E02C0660F771F0A94E2F7292F30E081
S113099026233723B90102C0759567958A95E2F736
S11309A0FA016083089540E00E94E902089541E05D
S11309B00E94E902089541E00E94AA03089540E0DC
S11309C00E94AA0308950E941C0690F09F3748F4E1
S11309D0911116F40C94350660E070E080E89FE312
S11309E0089526F01B16611D711D811D0C94AF0521
S11309F00C94CA050E940E050C94E9050E94E205B8
S1130A0058F00E94DB0540F029F45F3F29F00C9474
S1130A10A90551110C9435060C94D8050E94FA05C9
S1130A2068F39923B1F3552391F3951B550BBB2719
S1130A30AA2762177307840738F09F5F5F4F220F5E
S1130A40331F441FAA1FA9F335D00E2E3AF0E0E855
S1130A5032D091505040E695001CCAF72BD0FE2F9F
S1130A6029D0660F771F881FBB1F26173707480733
S1130A70AB07B0E809F0BB0B802DBF01FF279358EB
S1130A805F4F3AF09E3F510578F00C94A9050C9401
S1130A9035065F3FE4F3983ED4F3869577956795E2
S1130AA0B795F7959F5FC9F7880F911D9695879520
S1130AB097F90895E1E0660F771F881FBB1F62173F
S1130AC073078407BA0720F0621B730B840BBA0BFD
S1130AD0EE1F88F7E0950895E89409C097FB3EF46B
S1130AE090958095709561957F4F8F4F9F4F992377
S1130AF0A9F0F92F96E9BB279395F69587957795F5
S1130B006795B795F111F8CFFAF4BB0F11F460FFB4
S1130B101BC06F5F7F4F8F4F9F4F16C0882311F00C
S1130B2096E911C0772321F09EE8872F762F05C020
S1130B30662371F096E8862F70E060E02AF09A95BB
S1130B40660F771F881FDAF7880F9695879597F9B0
S1130B50089597F99F6780E870E060E0089588231E
S1130B6071F4772321F09850872B762F07C06623E2
S1130B7011F499270DC09051862B70E060E02AF0A3
S1130B809A95660F771F881FDAF7880F96958795D1
S1130B9097F908959F3F31F0915020F48795779508
S1130BA06795B795880F911D9695879597F9089540
S1130BB09FEF80EC089500240A9416161706180671
S1130BC00906089500240A9412161306140605064D
S1130BD00895092E0394000C11F4882352F0BB0FDE
S1130BE040F4BF2B11F460FF04C06F5F7F4F8F4F41
S1130BF09F4F089557FD9058440F551F59F05F3F7C
S1130C0071F04795880F97FB991F61F09F3F79F02A
S1130C1087950895121613061406551FF2CF4695AC
S1130C20F1DF08C0161617061806991FF1CF86952E
S1130C3071056105089408950E940206A0F0BEE7BC
S1130C40B91788F4BB279F3860F41616B11D672FB7
S1130C50782F8827985FF7CF869577956795B11D8C
S1130C6093959639C8F30895E894BB2766277727A8
S1130C70CB0197F908950E94400608F48FEF089578
S1130C80990F0008550FAA0BE0E8FEEF1616170699
S1130C90E807F907C0F012161306E407F50798F001
S1130CA0621B730B840B950B39F40A2661F0232B1A
S1130CB0242B252B21F408950A2609F4A140A69596
S10F0CC08FEF811D811D0895F894FFCF73
S9030000FC
